03300000        2007771310000159454110130040239     007944926           MIX COMERCIO DE BICICLETAS LTDBANCO SANTANDER (BRASIL) S/A            227082018      000016040                                                                          
03351351T01  040 2007771310000159007944926           454110130040239     MIX COMERCIO DE BICICLETAS LTD                                                                                0000001627082018                                         
0335135300001T 06454110130040239        00000000007362NF39198-A      2708201800000000025280334137390NF39198-A                002004854455000125O MUNDO DAS BICICLETAS PECAS E ACESS.LTD01300402390000000000000000400000000                      
0335135300002U 060000000000000000000000000000000000000000000000000000000000000000000002528030000000002528030000000000000000000000000000002708201828082018000000000000000000000000000                              000                           
0335135300003T 02454110130040239        00000000013412NF39263-A      2609201800000000013801703345411NF39263-A                002030624315000170SOUSA E VELOSO BIKES E ACESSORIOS LTDA  01300402390000000000001830000000000                      
0335135300004U 020000000000000000000000000000000000000000000000000000000000000000000000000000000000000000000000000000000000000000000000002708201827082018000000000000000000000000000                              000                           
0335135300005T 02454110130040239        00000000013502NF39263-B      2610201800000000013801503345411NF39263-B                002030624315000170SOUSA E VELOSO BIKES E ACESSORIOS LTDA  01300402390000000000001830000000000                      
0335135300006U 020000000000000000000000000000000000000000000000000000000000000000000000000000000000000000000000000000000000000000000000002708201827082018000000000000000000000000000                              000                           
0335135300007T 02454110130040239        00000000013682NF39263-C      2611201800000000013801503345411NF39263-C                002030624315000170SOUSA E VELOSO BIKES E ACESSORIOS LTDA  01300402390000000000001830000000000                      
0335135300008U 020000000000000000000000000000000000000000000000000000000000000000000000000000000000000000000000000000000000000000000000002708201827082018000000000000000000000000000                              000                           
0335135300009T 02454110130040239        00000000013762NF39263-D      2612201800000000013801503345411NF39263-D                002030624315000170SOUSA E VELOSO BIKES E ACESSORIOS LTDA  01300402390000000000001830000000000                      
0335135300010U 020000000000000000000000000000000000000000000000000000000000000000000000000000000000000000000000000000000000000000000000002708201827082018000000000000000000000000000                              000                           
0335135300011T 02454110130040239        00000000013842NF39263-E      2401201900000000013801503345411NF39263-E                002030624315000170SOUSA E VELOSO BIKES E ACESSORIOS LTDA  01300402390000000000001830000000000                      
0335135300012U 020000000000000000000000000000000000000000000000000000000000000000000000000000000000000000000000000000000000000000000000002708201827082018000000000000000000000000000                              000                           
0335135300013T 02454110130040239        00000000013922NF39263-F      2502201900000000013801503345411NF39263-F                002030624315000170SOUSA E VELOSO BIKES E ACESSORIOS LTDA  01300402390000000000001830000000000                      
0335135300014U 020000000000000000000000000000000000000000000000000000000000000000000000000000000000000000000000000000000000000000000000002708201827082018000000000000000000000000000                              000                           
0335135300015T 02454110130040239        00000000014062NF39267-A      2609201800000000006405603345411NF39267-A                002022510086000135FERNANDO MARVEL MAIA FERREIRA 781369110501300402390000000000001830000000000                      
0335135300016U 020000000000000000000000000000000000000000000000000000000000000000000000000000000000000000000000000000000000000000000000002708201827082018000000000000000000000000000                              000                           
0335135300017T 02454110130040239        00000000014142NF39267-B      1110201800000000006405503345411NF39267-B                002022510086000135FERNANDO MARVEL MAIA FERREIRA 781369110501300402390000000000001830000000000                      
0335135300018U 020000000000000000000000000000000000000000000000000000000000000000000000000000000000000000000000000000000000000000000000002708201827082018000000000000000000000000000                              000                           
0335135300019T 02454110130040239        00000000014222NF39267-C      2610201800000000006405503345411NF39267-C                002022510086000135FERNANDO MARVEL MAIA FERREIRA 781369110501300402390000000000001830000000000                      
0335135300020U 020000000000000000000000000000000000000000000000000000000000000000000000000000000000000000000000000000000000000000000000002708201827082018000000000000000000000000000                              000                           
0335135300021T 02454110130040239        00000000014302NF39267-D      1211201800000000006405503345411NF39267-D                002022510086000135FERNANDO MARVEL MAIA FERREIRA 781369110501300402390000000000001830000000000                      
0335135300022U 020000000000000000000000000000000000000000000000000000000000000000000000000000000000000000000000000000000000000000000000002708201827082018000000000000000000000000000                              000                           
0335135300023T 02454110130040239        00000000014492NF39267-E      2611201800000000006405503345411NF39267-E                002022510086000135FERNANDO MARVEL MAIA FERREIRA 781369110501300402390000000000001830000000000                      
0335135300024U 020000000000000000000000000000000000000000000000000000000000000000000000000000000000000000000000000000000000000000000000002708201827082018000000000000000000000000000                              000                           
0335135300025T 02454110130040239        00000000014572NF39267-F      1012201800000000006405503345411NF39267-F                002022510086000135FERNANDO MARVEL MAIA FERREIRA 781369110501300402390000000000001830000000000                      
0335135300026U 020000000000000000000000000000000000000000000000000000000000000000000000000000000000000000000000000000000000000000000000002708201827082018000000000000000000000000000                              000                           
0335135300027T 02454110130040239        00000000014652NF39267-G      2612201800000000006405503345411NF39267-G                002022510086000135FERNANDO MARVEL MAIA FERREIRA 781369110501300402390000000000001830000000000                      
0335135300028U 020000000000000000000000000000000000000000000000000000000000000000000000000000000000000000000000000000000000000000000000002708201827082018000000000000000000000000000                              000                           
0335135300029T 02454110130040239        00000000014732NF39267-H      0901201900000000006405503345411NF39267-H                002022510086000135FERNANDO MARVEL MAIA FERREIRA 781369110501300402390000000000001830000000000                      
0335135300030U 020000000000000000000000000000000000000000000000000000000000000000000000000000000000000000000000000000000000000000000000002708201827082018000000000000000000000000000                              000                           
0335135300031T 02454110130040239        00000000014812NF39267-I      2401201900000000006405503345411NF39267-I                002022510086000135FERNANDO MARVEL MAIA FERREIRA 781369110501300402390000000000001830000000000                      
0335135300032U 020000000000000000000000000000000000000000000000000000000000000000000000000000000000000000000000000000000000000000000000002708201827082018000000000000000000000000000                              000                           
0335135300033T 02454110130040239        00000000014902NF39267-J      0802201900000000006405503345411NF39267-J                002022510086000135FERNANDO MARVEL MAIA FERREIRA 781369110501300402390000000000001830000000000                      
0335135300034U 020000000000000000000000000000000000000000000000000000000000000000000000000000000000000000000000000000000000000000000000002708201827082018000000000000000000000000000                              000                           
0335135300035T 02454110130040239        00000000015032NF39267-K      2502201900000000006405503345411NF39267-K                002022510086000135FERNANDO MARVEL MAIA FERREIRA 781369110501300402390000000000001830000000000                      
0335135300036U 020000000000000000000000000000000000000000000000000000000000000000000000000000000000000000000000000000000000000000000000002708201827082018000000000000000000000000000                              000                           
0335135300037T 02454110130040239        00000000015112NF39271-A      2609201800000000007935703345411NF39271-A                002025277945000186JAQUELINE DO CARMO DE ABREU             01300402390000000000001830000000000                      
0335135300038U 020000000000000000000000000000000000000000000000000000000000000000000000000000000000000000000000000000000000000000000000002708201827082018000000000000000000000000000                              000                           
0335135300039T 02454110130040239        00000000015202NF39271-B      2610201800000000007935603345411NF39271-B                002025277945000186JAQUELINE DO CARMO DE ABREU             01300402390000000000001830000000000                      
0335135300040U 020000000000000000000000000000000000000000000000000000000000000000000000000000000000000000000000000000000000000000000000002708201827082018000000000000000000000000000                              000                           
0335135300041T 02454110130040239        00000000015382NF39271-C      2611201800000000007935603345411NF39271-C                002025277945000186JAQUELINE DO CARMO DE ABREU             01300402390000000000001830000000000                      
0335135300042U 020000000000000000000000000000000000000000000000000000000000000000000000000000000000000000000000000000000000000000000000002708201827082018000000000000000000000000000                              000                           
0335135300043T 02454110130040239        00000000015462NF39271-D      2612201800000000007935603345411NF39271-D                002025277945000186JAQUELINE DO CARMO DE ABREU             01300402390000000000001830000000000                      
0335135300044U 020000000000000000000000000000000000000000000000000000000000000000000000000000000000000000000000000000000000000000000000002708201827082018000000000000000000000000000                              000                           
0335135300045T 02454110130040239        00000000015542NF39271-E      2401201900000000007935603345411NF39271-E                002025277945000186JAQUELINE DO CARMO DE ABREU             01300402390000000000001830000000000                      
0335135300046U 020000000000000000000000000000000000000000000000000000000000000000000000000000000000000000000000000000000000000000000000002708201827082018000000000000000000000000000                              000                           
0335135300047T 02454110130040239        00000000015622NF39276-A      2609201800000000015812103345411NF39276-A                002021728042000113PLINIO BATISTA PINTO 91491002115        01300402390000000000001830000000000                      
0335135300048U 020000000000000000000000000000000000000000000000000000000000000000000000000000000000000000000000000000000000000000000000002708201827082018000000000000000000000000000                              000                           
0335135300049T 02454110130040239        00000000015702NF39276-B      2610201800000000015811703345411NF39276-B                002021728042000113PLINIO BATISTA PINTO 91491002115        01300402390000000000001830000000000                      
0335135300050U 020000000000000000000000000000000000000000000000000000000000000000000000000000000000000000000000000000000000000000000000002708201827082018000000000000000000000000000                              000                           
0335135300051T 02454110130040239        00000000015892NF39276-C      2611201800000000015811703345411NF39276-C                002021728042000113PLINIO BATISTA PINTO 91491002115        01300402390000000000001830000000000                      
0335135300052U 020000000000000000000000000000000000000000000000000000000000000000000000000000000000000000000000000000000000000000000000002708201827082018000000000000000000000000000                              000                           
0335135300053T 02454110130040239        00000000015972NF39276-D      2612201800000000015811703345411NF39276-D                002021728042000113PLINIO BATISTA PINTO 91491002115        01300402390000000000001830000000000                      
0335135300054U 020000000000000000000000000000000000000000000000000000000000000000000000000000000000000000000000000000000000000000000000002708201827082018000000000000000000000000000                              000                           
0335135300055T 02454110130040239        00000000016002NF39276-E      2401201900000000015811703345411NF39276-E                002021728042000113PLINIO BATISTA PINTO 91491002115        01300402390000000000001830000000000                      
0335135300056U 020000000000000000000000000000000000000000000000000000000000000000000000000000000000000000000000000000000000000000000000002708201827082018000000000000000000000000000                              000                           
0335135300057T 02454110130040239        00000000016192NF39276-F      2502201900000000015811703345411NF39276-F                002021728042000113PLINIO BATISTA PINTO 91491002115        01300402390000000000001830000000000                      
0335135300058U 020000000000000000000000000000000000000000000000000000000000000000000000000000000000000000000000000000000000000000000000002708201827082018000000000000000000000000000                              000                           
0335135300059T 02454110130040239        00000000016272NF39277-A      2609201800000000006431203345411NF39277-A                002017338208000118MARIA REJANE PEREIRA DA SILVA - ME      01300402390000000000001830000000000                      
0335135300060U 020000000000000000000000000000000000000000000000000000000000000000000000000000000000000000000000000000000000000000000000002708201827082018000000000000000000000000000                              000                           
0335135300061T 02454110130040239        00000000016352NF39277-B      2610201800000000006431003345411NF39277-B                002017338208000118MARIA REJANE PEREIRA DA SILVA - ME      01300402390000000000001830000000000                      
0335135300062U 020000000000000000000000000000000000000000000000000000000000000000000000000000000000000000000000000000000000000000000000002708201827082018000000000000000000000000000                              000                           
0335135300063T 02454110130040239        00000000016432NF39277-C      2611201800000000006431003345411NF39277-C                002017338208000118MARIA REJANE PEREIRA DA SILVA - ME      01300402390000000000001830000000000                      
0335135300064U 020000000000000000000000000000000000000000000000000000000000000000000000000000000000000000000000000000000000000000000000002708201827082018000000000000000000000000000                              000                           
0335135300065T 02454110130040239        00000000016512NF39277-D      2612201800000000006431003345411NF39277-D                002017338208000118MARIA REJANE PEREIRA DA SILVA - ME      01300402390000000000001830000000000                      
0335135300066U 020000000000000000000000000000000000000000000000000000000000000000000000000000000000000000000000000000000000000000000000002708201827082018000000000000000000000000000                              000                           
0335135300067T 02454110130040239        00000000016602NF39277-E      2401201900000000006431003345411NF39277-E                002017338208000118MARIA REJANE PEREIRA DA SILVA - ME      01300402390000000000001830000000000                      
0335135300068U 020000000000000000000000000000000000000000000000000000000000000000000000000000000000000000000000000000000000000000000000002708201827082018000000000000000000000000000                              000                           
03351355         0000680000910000000000733866900000000000000000000000000000000000000000000000000000000000000000000000000004                                                                                                                     
03351359         000001000072                                                                                                                                                                                                                   
